:020000040800F2
:10000000107C0020CD010008E90600086106000808
:10001000E50600081903000843130008000000006B
:10002000000000000000000000000000A908000817
:10003000410500080000000071070008BD09000824
:10004000E7010008E7010008E7010008E7010008F0
:10005000E7010008E7010008E7010008E7010008E0
:10006000E7010008E7010008E7010008E7010008D0
:10007000E7010008E7010008E7010008E7010008C0
:10008000E7010008E7010008E7010008E7010008B0
:10009000E7010008E7010008E7010008E7010008A0
:1000A000E7010008E7010008E7010008E701000890
:1000B000E7010008210A0008E7010008E70100083D
:1000C000E7010008E7010008E7010008E701000870
:1000D000E7010008290D0008090E0008110F0008AB
:1000E000E7010008E7010008E7010008E701000850
:1000F000E7010008E7010008E7010008E701000840
:10010000E7010008E7010008E7010008E70100082F
:10011000810C0008D50C0008E7010008E701000881
:10012000E7010008E7010008E7010008E70100080F
:1001300000F002F800F03AF80AA090E8000C8244BF
:100140008344AAF10107DA4501D100F02FF8AFF29C
:10015000090EBAE80F0013F0010F18BFFB1A43F0A5
:10016000010318472415000044150000103A24BF6D
:1001700078C878C1FAD8520724BF30C830C144BF0C
:1001800004680C607047000000230024002500264E
:10019000103A28BF78C1FBD8520728BF30C148BFEA
:1001A0000B6070471FB51FBD10B510BD00F06EF895
:1001B0001146FFF7F7FF01F0F9F800F0A0F803B4DB
:1001C000FFF7F2FF03BC01F0BEF8000009488047CA
:1001D00009480047FEE7FEE7FEE7FEE7FEE7FEE729
:1001E000FEE7FEE7FEE7FEE704480549054A064B41
:1001F00070470000C1090008310100081076002096
:10020000107C00201078002010780020704700003B
:100210000FB4044910B503AA029800F009F810BC05
:100220005DF814FB2400002070477047704770474A
:10023000074B70B50D467B4400F011F80446284684
:1002400000F020F810B14FF0FF3070BD204670BDB7
:100250005711000001694A1C02610878704700B517
:100260008FB0CDE901310021059105497944CDE9EF
:1002700003101146684600F02EF80FB000BD0000D4
:10028000E5FFFFFF007B00F080007047754600F03F
:100290003FF8AE4605006946534620F00700854604
:1002A00018B020B5FFF7A0FFBDE820404FF00006D2
:1002B0004FF000074FF000084FF0000B21F007014E
:1002C000AC46ACE8C009ACE8C009ACE8C009ACE891
:1002D000C0098D4670472DE9F04106460024D6E955
:1002E0000170F5688046304603E04146B847641C1B
:1002F0003046A8470028F8D12046BDE8F08110B567
:100300000446AFF300802046BDE81040FFF757BF1A
:1003100000487047B075002000BFFEE700F0805134
:1003200011B10349086001E00249486070470000CC
:10033000040402400000024021B1026842F00102C0
:10034000026004E002684FF6FE731A4002607047D4
:1003500001684FF6FE7211400160002101604160AA
:100360008160C1604B49884208D14A4908394968CF
:1003700041F00F01474A083A51608AE0454914317B
:10038000884208D143490839496841F0F001414A9F
:10039000083A51607DE03F492831884208D13D4903
:1003A0000839496841F470613A4A083A516070E08E
:1003B00038493C31884208D136490839496841F406
:1003C0007041344A083A516063E032495031884202
:1003D00008D130490839496841F470212D4A083A5A
:1003E000516056E02B496431884208D129490839C7
:1003F000496841F47001274A083A516049E02549AB
:100400007831884208D123490839496841F0706140
:10041000204A083A51603CE01F49884206D1011F3A
:10042000096841F00F01021F116032E01A491431CE
:10043000884208D11849091F096841F0F001164A9D
:10044000121F116025E014492831884208D1124951
:10045000091F096841F470610F4A121F116018E00A
:100460000D493C31884208D10B49091F096841F404
:100470007041094A121F11600BE007495031884250
:1004800007D10549091F096841F47021024A121F6A
:100490001160704708000240080402400146002035
:1004A000002201F0805313B1054B1A6801E0054B9F
:1004B0001A6802EA01030BB1012000E00020704736
:1004C000000402400000024010B50022026847F616
:1004D000F0739A430C6A8B6823430C6923434C697D
:1004E00023438C692343CC6923434C6A23438C6A9E
:1004F00023431A430260CB6843600B6883604B68F8
:10050000C36010BD4160704708B50121082000F0AC
:1005100051F94FF40040ADF8000010208DF80300B1
:1005200003208DF802006946044800F00AF84FF4F1
:100530000041024800F090F808BD0000000C0140A6
:1005400070472DE9F04102460025002600200023D7
:100550000024002791F803C00CF00F0591F803C0A8
:100560000CF0100CBCF1000F03D091F802C04CEA63
:10057000050591F800C0BCF1000F31D014680020CF
:100580002BE04FF0010C0CFA00F3B1F800C00CEABC
:1005900003069E4220D183004FF00F0C0CFA03F7A4
:1005A000BC4305FA03FC4CEA040491F803C0BCF117
:1005B000280F06D14FF0010C0CFA00FCC2F814C051
:1005C0000AE091F803C0BCF1480F05D14FF0010CCF
:1005D0000CFA00FCC2F810C0401C0828D1D31460EB
:1005E000B1F800C0BCF1FF0F34DD546800202EE0EC
:1005F00000F1080C4FF0010808FA0CF3B1F800C044
:100600000CEA03069E4221D183004FF00F0C0CFA36
:1006100003F7BC4305FA03FC4CEA040491F803C059
:10062000BCF1280F05D100F1080C08FA0CF8C2F84B
:10063000148091F803C0BCF1480F07D100F1080CF9
:100640004FF0010808FA0CF8C2F81080401C082886
:10065000CED35460BDE8F0814161704701617047BD
:1006600000BFFEE72DE9F04107460D4616461C4641
:100670000121084600F07EF83846FFF769FE0E4873
:1006800004800E480560466010200C4988600846CA
:10069000C460002008618020486100208861C86132
:1006A00008624FF480504862002088623846FFF7A5
:1006B0000BFFBDE8F08100003800002084750020A9
:1006C00010B5044600212046FFF736FE0448018895
:1006D0002046FFF717FF01212046FFF72DFE10BD32
:1006E0003800002000BFFEE77047000070B5002111
:1006F00000230F22C47804B3154C246804F4E0648A
:10070000C4F5E064210AC1F10403CA40447804FA44
:1007100003F184781440214309010E4C0678A15559
:10072000047804F01F050124AC4005786D11AD007C
:1007300005F1E025C5F8004109E0047804F01F0543
:100740000124AC40044D0678761145F8264070BD72
:100750000CED00E000E400E080E100E010B5FFF700
:10076000D3FE00F055FA00F06FFA00F035FA10BD34
:100770007047000029B1064A52690243044B5A618E
:1007800004E0034A52698243014B5A6170470000FA
:100790000010024029B1064AD2690243044BDA61D3
:1007A00004E0034AD2698243014BDA6170470000DA
:1007B0000010024029B1064A92690243044B9A6133
:1007C00004E0034A92698243014B9A61704700003A
:1007D0000010024030B500210022002400232D4DDE
:1007E0006D6805F00C0121B1042905D0082923D139
:1007F00005E0294D056022E0274D05601FE0254DED
:100800006D6805F47012234D6D6805F4803402257F
:1008100005EB92421CB9214D554305600BE01D4D7F
:100820006D6805F400351DB11C4D5543056002E0AF
:10083000194D5543056002E0174D056000BF00BF2C
:10084000144D6D6805F0F0010909154D6B5C0568E4
:10085000DD4045600F4D6D6805F4E061090A104DFB
:100860006B5C4568DD4085600A4D6D6805F460513C
:10087000C90A0B4D6B5C4568DD40C560054D6D6870
:1008800005F44041890B074D6B5CC568B5FBF3F57A
:10089000056130BD0010024000127A0000093D00E1
:1008A0003E0000204E000020704710B500F002F816
:1008B00010BD00000CB50020019000903348006886
:1008C00040F480303149086000BF3048006800F4CF
:1008D000003000900198401C0190009818B90198D0
:1008E000B0F5A06FF1D12948006800F4003010B1D4
:1008F0000120009001E0002000900098012843D1E1
:100900002348006840F0100021490860084600684C
:1009100020F0030008600846006840F0020008600C
:100920001A484068194948600846406848600846C7
:10093000406840F4806048600846406820F47C10BD
:1009400048600846406840F4E8104860084600687F
:1009500040F08070086000BF0C48006800F0007034
:100960000028F9D00948406820F003000749486092
:100970000846406840F00200486000BF03484068F5
:1009800000F00C000828F9D10CBD00000010024056
:1009900000200240042808D14FF0E021096941F00D
:1009A00004014FF0E022116107E04FF0E0210969F6
:1009B00021F004014FF0E022116170477047000000
:1009C00010B51348006840F001001149086008465E
:1009D0004068104908400E494860084600680E49C2
:1009E00008400B4908600846006820F48020086031
:1009F0000846406820F4FE0048604FF41F008860FD
:100A0000FFF753FF4FF000600449086010BD00007D
:100A1000001002400000FFF8FFFFF6FE08ED00E0C6
:100A200010B50121104800F06AF8E0B101210E482C
:100A300000F056F80D480088401C0C4908800C480E
:100A40000088401C0A4908800A480088401C09495F
:100A5000088009480088401C07490880074800882A
:100A6000401C0649088010BD000400400000002022
:100A700002000020040000200600002008000020E2
:100A80007FB505460C4601210220FFF783FEADF835
:100A90000850ADF804400020ADF80A00ADF806009B
:100AA00001A90E4800F046F8012211460B4800F05B
:100AB00037F81D208DF8000000208DF8010003207C
:100AC0008DF8020001208DF803006846FFF70EFE46
:100AD0000121024800F007F87FBD0000000400403B
:100AE000CA430282704721B1028842F001020280AB
:100AF00004E002884FF6FE731A400280704730B55A
:100B00000246002000230024158A05EA0103958986
:100B100005EA010413B10CB1012000E0002030BD52
:100B20001AB183890B43838102E083898B438381DC
:100B300070470000002202881D4B98420ED01D4BCA
:100B400098420BD0B0F1804F08D01B4B984205D093
:100B50001A4B984202D01A4B984204D14FF68F7329
:100B60001A404B881A43174B984207D0164B9842AD
:100B700004D04FF6FF431A40CB881A4302808B887B
:100B800083850B8803850A4B98420BD0094B98420A
:100B900008D00E4B984205D00D4B984202D00D4B19
:100BA000984201D10B7A03860123838270470000AB
:100BB000002C0140003401400004004000080040C7
:100BC000000C0040001000400014004000400140B4
:100BD000004401400048014008B501210820FFF70A
:100BE000E9FD4FF48050ADF8000010208DF80300AF
:100BF00003208DF8020069460448FFF7A2FC4FF479
:100C000080510248FFF72AFD08BD0000000C01409A
:100C100008B501210820FFF7CDFD4FF48040ADF865
:100C2000000010208DF8030003208DF802006946B3
:100C30000448FFF786FC4FF480410248FFF70CFDA3
:100C400008BD0000000C014008B501210820FFF795
:100C5000B1FD4FF40050ADF8000010208DF80300F6
:100C600003208DF8020069460448FFF76AFC4FF440
:100C700000510248FFF7F0FC08BD0000000C0140E5
:100C800010B540F225510F4800F096FAC0B10D485A
:100C900000F04EFBC4B20C480C49098844540B4880
:100CA0000088401C094908800846008841F28831C4
:100CB000884202DB002005490880002004490880A2
:100CC00010BD0000004C0040744E00203000002099
:100CD0000600002010B540F225510F4800F06CFAD4
:100CE000C0B10D4800F024FBC4B20C480C4909887F
:100CF00044540B480088401C094908800846008875
:100D000041F28831884202DB00200549088000203A
:100D10000449088010BD000000500040FC61002024
:100D2000360000200800002010B540F225510A4886
:100D300000F042FA78B1084800F0FAFAC4B2074865
:100D400007490988445406480088401C0449088023
:100D500000200449088010BD00380140DC13002049
:100D6000200000200000002010B586B004460121BC
:100D700044F20400FFF71EFD4FF40070ADF81400BC
:100D800003208DF8160018208DF8170005A91C48BF
:100D9000FFF7D7FB4FF48060ADF8140004208DF806
:100DA000170005A91648FFF7CCFB25208DF8000099
:100DB00003208DF801008DF8020001208DF803005A
:100DC0006846FFF793FC01940020ADF80800ADF8E9
:100DD0000A00ADF80C00ADF810000C20ADF80E00C4
:100DE00001A9084800F038FA012240F225510548CF
:100DF00000F00CFA0121034800F0BCF906B010BD68
:100E0000000801400038014010B540F2255110485B
:100E100000F0D2F9D8B10E4800F08AFAC4B20D48F9
:100E20000D49098844540C480088401C0A49088030
:100E30000846008841F28831884205DB00200649D7
:100E4000088006A0FFF7E4F900200749088010BDDC
:100E500000440040642700202A000020553220452D
:100E600052524F522E0A00000200002010B586B0E8
:100E7000044601210420FFF79DFC01214804FFF7EF
:100E800089FC0420ADF8140003208DF8160018200A
:100E90008DF8170005A91C48FFF753FB0820ADF893
:100EA000140004208DF8170005A91748FFF749FB27
:100EB00026208DF8000003208DF801008DF8020037
:100EC00001208DF803006846FFF710FC0194002014
:100ED000ADF80800ADF80A00ADF80C00ADF8100050
:100EE0000C20ADF80E0001A9084800F0B5F9012268
:100EF00040F22551054800F089F90121034800F02E
:100F000039F906B010BD000000080140004400405F
:100F100010B540F22551104800F04EF9D8B10E48F6
:100F200000F006FAC4B20D480D49098844540C4833
:100F30000088401C0A4908800846008841F2883130
:100F4000884205DB00200649088006A0FFF760F90B
:100F500000200749088010BD00480040EC3A0020FE
:100F60002E0000205533204552524F522E0A0000C9
:100F70000400002010B586B0044601210820FFF7C8
:100F800019FC01218804FFF705FC4FF48060ADF8DF
:100F9000140003208DF8160018208DF8170005A9FD
:100FA0001C48FFF7CEFA4FF40060ADF8140004209F
:100FB0008DF8170005A91748FFF7C3FA27208DF809
:100FC000000003208DF801008DF8020001208DF84B
:100FD00003006846FFF78AFB01940020ADF8080083
:100FE000ADF80A00ADF80C00ADF810000C20ADF81B
:100FF0000E0001A9084800F02FF9012240F2255106
:10100000054800F003F90121034800F0B3F806B0E9
:1010100010BD0000000C01400048004010B586B033
:10102000044601211020FFF7C5FB0121C804FFF78A
:10103000B1FB4FF48060ADF8140003208DF816006A
:1010400018208DF8170005A91C48FFF77AFA4FF40D
:101050000060ADF8140004208DF8170005A91748AA
:10106000FFF76FFA34208DF8000003208DF801009F
:101070008DF8020001208DF803006846FFF736FB6B
:1010800001940020ADF80800ADF80A00ADF80C009E
:10109000ADF810000C20ADF80E0001A9084800F0D2
:1010A000DBF8012240F22551054800F0AFF801219C
:1010B000034800F05FF806B010BD000000100140CA
:1010C000004C004010B586B0044601211020FFF707
:1010D00071FB01212020FFF76DFB01210805FFF7BF
:1010E00059FB4FF48050ADF8140003208DF8160022
:1010F00018208DF8170005A91B48FFF722FA0420D5
:10110000ADF814008DF8170005A91848FFF719FA73
:1011100035208DF8000003208DF801008DF80200C5
:1011200001208DF803006846FFF7E0FA01940020E3
:10113000ADF80800ADF80A00ADF80C00ADF81000ED
:101140000C20ADF80E0001A9094800F085F8012235
:1011500040F22551064800F059F80121044800F0FA
:1011600009F806B010BD0000001001400014014055
:101170000050004021B1828942F40052828104E093
:1011800082894DF6FF731A40828170471AB1838AB3
:101190000B43838202E0838A8B438382704702463B
:1011A0000020B1F5007F00D100BF13880B400BB1C8
:1011B000012000E00020704770B5024600240023A3
:1011C0000025002040F66A16B14200D100BFC1F3ED
:1011D000421501F01F03012606FA03F3012D02D187
:1011E0009689334006E0022D02D1168A334001E091
:1011F000968A33400C12012606FA04F4168834400D
:1012000013B10CB1012000E0002070BDF0B5034621
:10121000002400260025002040F66A17B94200D1BC
:1012200000BF1846C1F3421401F01F06012707FA58
:1012300006F5012C01D10C3004E0022C01D1103054
:1012400000E014301AB107682F43076002E0076816
:10125000AF430760F0BD00002DE9F04786B00546BA
:101260000E460024A24600BFA1460027B08900B167
:1012700000BF2F462C8A4CF6FF700440F0880443D0
:101280002C82AC894EF6F3100440B08831890843B3
:10129000718908430443AC81AC8A4FF6FF40044097
:1012A000B0890443AC8201A8FFF794FA1F48874233
:1012B00002D1DDF810A001E0DDF80CA0A88900F44F
:1012C000004040B10AEBCA0000EB0A103168490047
:1012D000B0FBF1F807E00AEBCA0000EB0A10316836
:1012E0008900B0FBF1F86420B8FBF0F0040120099C
:1012F000642101FB1089A88900F4004040B132202C
:1013000000EBC900B0FBF1F000F00700044308E077
:10131000322000EB09106421B0FBF1F000F00F0067
:1013200004432C8106B0BDE8F0870000003801407E
:1013300001468888C0F308007047C1F30802828024
:10134000704700BFFEE700BF7047000010B56FF0A8
:101350000400FFF71FFB0A4800680A49B0FBF1F0E0
:10136000094908700846007800EB4001C1EBC01045
:101370004FF6FF7101EAC0000449088010BD00006B
:101380000C00002000127A003A0000203C000020EF
:1013900000BF054A128802F04002002AF9D0C2B20A
:1013A000014B1B1D1A8070470038014000260027A2
:1013B0000025A8460024FFF7C9FFFFF7CFF994489E
:1013C000FFF7D2FC4FF4E130FFF750FD4FF4E1306E
:1013D000FFF7D0FD4FF4E130FFF720FE4FF4E1308E
:1013E000FFF770FE41F61F411320FFF749FB89A06C
:1013F000FEF70EFF0AE1002F70D136B1012E27D083
:10140000022E48D0032E22D169E0854800880328A7
:1014100002DB8448008820B982480088B0F57A7FD2
:1014200013DB80480388804A80498148FFF71AF916
:10143000012280217D48001FFFF7A8FE7C48FFF7AE
:101440003FF90127002077490880701CC6B268E088
:1014500078480088032802DB7748008820B976485E
:101460000088B0F57A7F13DB73480388734A6F49AD
:101470006F48FFF7F7F8012280216C48001FFFF743
:1014800085FE6B48FFF71CF9012700206A49088098
:10149000701CC6B245E06A480088032802DB694830
:1014A000008820B967480088B0F57A7F13DB65486B
:1014B0000388654A5D495E48FFF7D4F80122802120
:1014C0005A48001FFFF762FE5948FFF7F9F8012755
:1014D00000205C490880701CC6B222E022E05B4814
:1014E0000088032802DB5A48008820B95848008841
:1014F000B0F57A7F13DB56480388564A4B494C486F
:10150000FFF7B0F8012280214848001FFFF73EFE98
:101510004748FFF7D5F8012700204D4908800026ED
:1015200000BF00BF4FF40050FEF7B8FF20B14FF4EA
:101530000050FEF7F3FE002747480088B0B1474847
:101540000088032812DB002405E04548005D45497A
:101550000855601C84B2404800888442F5DB3E4850
:10156000058800203C4908804FF001082D4800887C
:1015700000284BD130480088002847D131480088E6
:10158000002843D13248008800283FD1B8F1010F2C
:101590003CD180462C460120334908603349C1F8CC
:1015A0008C01334908603349C1F8B40120E0601B65
:1015B0002C4A115C3048FFF7C0FE601B294A115CC1
:1015C0002E48FFF7BAFE601B264A115C2C48FFF735
:1015D000B4FE601B234A115C2A48FFF7AEFE00BF31
:1015E00040212848FFF7DBFD0128F9D1681E85B2AC
:1015F000002DDCD1A84600201B4908601B49C1F81A
:101600008C011B4908601B49C1F8B401F3E60000D6
:1016100000460500496E6974204F4B2E0A000000F9
:10162000020000202A000020642700200438014026
:1016300044000240040000202E000020EC3A00206C
:101640000600002030000020744E0020080000201A
:1016500036000020FC610020200000200000002057
:10166000DC130020540000208401214200002242AB
:10167000B8812142008021420044004000480040DF
:10168000004C004000500040A81600080000002058
:10169000540000006C010008FC16000854000020F3
:1016A000BC7B000088010008000000000000000072
:1016B0000000000000A24A0400000000000000003A
:1016C00001020304060708090000000000000000F2
:1016D000000000000000000000000000000000000A
:1016E00000000000000000000000010203040102ED
:0C16F000030406070809020406080000B5
:0400000508000131BD
:00000001FF
